:020000001928BD
:100008007E1480310B1F17284E0117180D1C0D2860
:100018008A254E01991A8F1E1728410141088A0026
:1000280040080A0080317E1009001A28F001F10109
:10003800F201F301F40140308400003085001530EE
:1000480006267E104001282896250A304B211E30AE
:100058006F228B170B17402835084001BE0041015D
:100068003808A03E8600870140013E088100013023
:10007800BE003E084101B807DF23BE003E0841012B
:10008800B5000A303506031D30283808A03E860022
:1000980087018101AF304001BE003E08A400A030B6
:1000A800E421BF003F084101B9007D286723BE0055
:1000B8003E084101B400340898249728AF307125D0
:1000C8009728AF30AC22BE003E084101B600360A80
:1000D8000319972836086F229728AF30AC22BE0044
:1000E8003E084101B700370A0319972837084B2102
:1000F800972839084001BE00BF013F08003A03199C
:10010800862897283E08003A03195A28013A031905
:100118006228033A03196528013A03197128073A36
:100128000319972897284101B8014028B000B20167
:100138000A30AC002C08A5006430AD002D08A000E2
:10014800300803244424AE002E08AF000A30AC0067
:100158002C08A5000A30AD002D08A00030080324A3
:100168004424AE002E08B1002F080319CF282F0809
:10017800303EAC002B08860087012C088100013036
:10018800AC002C08B2073108303EAC0032082B070F
:10019800AD002D08D62831080319DE283108303E75
:1001A800AC002B08860087012C0881000130AC00C8
:1001B8002C08B2070A30AC002C08A50030084424EB
:1001C800303EAD0032082B07AE002E0886008701AE
:1001D8002D0881000130AC002C08B20732082B072B
:1001E800AC002C088600870181010800AC01A71F1C
:1001F8000429A609A709A60A0319A70AAC01AC0A8B
:10020800A91F0F29A809A909A80A0319A90A0130D1
:10021800AA002A08AC06AD01AE0126082704031976
:100228003E29AB01AB0AA71B23290130A635A70D30
:10023800890B1A290130AA002A08AB0717290130AF
:10024800AD35AE0D890B242927082902031D2E2957
:1002580026082802031C35292608A8022708A93BD6
:100268002D140130A736A60C890B36290130AB02B4
:10027800031D23292C0803194629AD09AE09AD0A27
:100288000319AE0A2E08A7002D08A6000800400191
:10029800B8006430A6000030A7003808023EA0006D
:1002A800003003180130A1001830A2000030A3006C
:1002B80063242108A9002008A800FA202608B30012
:1002C8003308BD003D08B300B4013308A00034086A
:1002D800A1000330A2000030A30063242108850098
:1002E80020088400993084078130853D003FB5009F
:1002F800013FB600023FB7003508A0003608A1004C
:100308003708A200F9253930B3003308AB003D089F
:100318009A20E030A1008430A20021253930A100C4
:100328000030A20021252E260800003400340034B5
:100338000134003400340134103400340134013401
:100348000134413410340434113442340834113443
:100358001134113449342434123449349234243455
:100368002534253425349534523429345534A5346C
:100378002A34553455345534AB345A3455346B34E7
:10038800B53456345B345B345B34DB34B6346D34AB
:10039800B734DB346D34773477347734EF34BD34A5
:1003A8007734DF34F7347D347F347F347F34FF345F
:1003B800F7347F34FF34FF347F34FF34FF34FF34A5
:1003C800A8001C30A0008630A1002808A500250838
:1003D800A2000F23003A0319F3290030080024086B
:1003E800A5002508A00028082C22A6002608A7009A
:1003F8000030A0008630A1002808A5002508A2002A
:10040800B923003A03190E2A04302706031D0E2AC1
:1004180001300800F230A0008530A1002808A500AE
:100428002508A200B923003A03191C2A0230080043
:100438001730A0008630A1002808A5002508A200D2
:10044800B923003A03192A2A0330080004300800A7
:10045800A300A201392A230886008701010803198D
:10046800402A0130A1002108A3072308860087013C
:100478003B300106031D2F2A230886008701010847
:10048800031D482A003008000130A1002108A307F5
:1004980023088600870101080319692A23088600B2
:1004A80087010108A1002008860087012108810032
:1004B8000130A1002108A0070130A1002108A307ED
:1004C8000130A1002108A2074C2A200886008701D4
:1004D8008101220808004001BA006430A6000030FB
:1004E800A7003A08083EA000003003180130A10018
:1004F8000630A2000030A30063242108A9002008C8
:10050800A800FA2027088500260884008435850D70
:10051800633084078530853D003FB800013FB9004E
:100528003908A1003808A000B12434304001B300D4
:100538003308AB003A089A20C930A1008430A200E1
:1005480021253430A1000030A20021252E260800E4
:10055800A800A701A601CA2A033026060319D02A33
:100568002808860087010A30A4002408A00027086C
:1005780034250107D03EA5002508A7000130A400B6
:100588002408A6070130A4002408A8072808860024
:1005980087010108031DB02A280886008701010881
:1005A800031DDC2A653027020318DC2A2708080007
:1005B800FF3008007408403E86008701810142012F
:1005C8001D1DF12A7408403E8600870181144101EF
:1005D8003F088A003E080A00823142019D1CFF2A1A
:1005E8007408403E86008701011541013D088A00D4
:1005F8003C080A0082317408403E860087010108E1
:1006080003190D2B41013B088A003A080A0083317F
:100618000800F7240800232B2208860087012008F9
:1006280084002108850000080106031D2A2B0130DB
:10063800A0070030A13D0130A3002308A20720082D
:100648008400210885001200031D102B2008840057
:10065800210885001200031D392B22088600870116
:100668000108031D392B01300800003008004E0135
:100678009912DE304001A0000230A100CB250830DD
:1006880042019F0090309D0024309E0033309B0033
:100698009C0133304001A0000630A100DB252A3040
:1006A8004001A0000630A100D32531304001A00050
:1006B8000630A100E3254001D401F401F301F20161
:1006C8004E0199160800A701A801A9012935503E35
:1006D80086008701403FA300413FA4002708230765
:1006E800A5002808243DA6002508A7002608A8007C
:1006F8000130A3002308A90702302902031C6A2B32
:100708002808A4002708A300A436A30C2308A000E7
:100718002408A100B32508000130F700570DD50DB6
:10072800D60DD70DF70B922B551C9C2B18149D2B0F
:1007380018107108F10A0139031908000C26760807
:10074800F9007508F8007035503E86008701780872
:10075800C03F7908C13F0130F7007708F007023041
:100768007002031C0800F0010800CD2B2208860047
:100778008701200884002108850000080106031D60
:10078800D42B0130A0070030A13D0130A30023087D
:10079800A20720088400210885001200031DBA2B37
:1007A80020088400210885001200031DDD2B01307C
:1007B80008000030080072080319DF2B7308403E58
:1007C8008600870101084001A0002008D4007308B2
:1007D800483E860087010108A0002008A1000130DA
:1007E800A0002008F307083073020318F3014E0134
:1007F80099120130F2029916400121080800A2005E
:10080800A40120080319222CA301A30AA01B132C5E
:100818000310A00D0130A1002108A3070A2C031022
:10082800A40D20082202031C1D2C2008A202241457
:100838000310A00C0130A302031D132C2408080088
:10084800400198019A01363092002B3094000A300A
:100858007E01CE003630B800B901CF01BA01D0010F
:100868003730BB003F30D1003F30BC003F30D200B2
:100878000F30A4000B30A20015307D01CB0008001A
:10088800A8000830A6002608A900AA012808A60082
:100898000730A636890B4D2C2A352604A7002708D1
:1008A800AA000310A80D25082A02031C5D2C2508A0
:1008B800AA020130A902031D4A2C2A080800A40133
:1008C800A501201C6B2C2208A4072308A53D013094
:1008D800A235A30D890B6C2C0130A136A00C890B15
:1008E800712C20082104031D652C2508A10024086B
:1008F800A00008002334203441346334743469344C
:100908007634653420346334683461346E346E343C
:1009180065346C347334203473346534743420345F
:1009280074346F34203400344001B4003530B300DF
:100938003308AB0034089A20EB30A1008530A200C0
:1009480021253530A1000030A20021251230A10058
:100958008630A20021252E2608002108A3002008A1
:10096800A200A336A20CA336A20C220846019500C9
:10097800400120080339A2000530A235FF3E031DBF
:10098800C12C223546019400080023342034443415
:1009980043342034663461346E3420347334703414
:1009A80065346534643420346934733420346E34E7
:1009B8006F34773420340034233420344834653499
:1009C8006134743465347234203470346F3477345D
:1009D8006534723420346934733420346E346F349F
:1009E80077342034003442011908F5007408483E71
:1009F80086008701750881000130F5007508F40745
:100A0800083074020318F4010130F5007508F20784
:100A18000800933041019E009B019C0101309D001C
:100A280002309F004E01171490304001A00003309F
:100A3800A10021260430542508002108840022083A
:100A48008500120003190800210884002208850087
:100A58000008AA2501304001A1070030A23D212D40
:100A6800A300A201231C3C2D2008A1002108A207F5
:100A78000310A00D0310A30C2308031D362D220814
:100A8800080001304501900020308F009101FF30AF
:100A98008D008C014E019010F03045018E00080049
:100AA800A1002108A000A00DA00D41011D084001D2
:100AB80020060339200641019D001D14080000345A
:100AC8000034AB3400345534013400340234AB34D0
:100AD800023455340334FF340334A4007E30A100BB
:100AE8008430A20021252408A1000030A20021257D
:100AF8002E26080044304B019F007C309D009C014D
:100B08004E018C1284304B019E0008000D104001EC
:100B1800580859040319080059088A0058080A0097
:100B280085310800C3252424A02526260D25BB25AC
:100B380045257E253B230800603051018D008F013B
:100B4800910102309300900192010800A0004E012B
:100B58000F1EAB2D4001200842019A000800200812
:100B6800A2000230A236890BB62D22080800803078
:100B7800460196007F309500C030940008004F0170
:100B880096019701980199019A019B010800210893
:100B98004101C100400120084101C00008002108AE
:100BA8004101BD00400120084101BC0008002108A6
:100BB8004101BF00400120084101BE000800210892
:100BC8004101BB00400120084101BA00080032344D
:100BD80035342C34383430342C34003444344334F1
:100BE800463441344E343B3400342008D5002108C3
:100BF800D6002208D70008004334483441344E3424
:100C08003B340034640080010131890B072E003425
:100C180041011C08F6001B08F50008002C3430348C
:100C28002C34303400344F34543431343B340034B1
:100C3800523445344134443400342108D900200862
:100C4800D8000800823052018C00080042011D12B1
:100C58001D1608000A30AA250800F7240800080015
:020000040001F9
:08000000FF3FFF3FFF3FFF3F00
:0A000E00EC3FFF3F9F3FFF3FFF3F25
:00000001FF
